S01600004361727269746F5F50726F6772612E7372656370
S11300000C9434000C943E000C943E000C943E007E
S11300100C943E000C943E000C943E000C943E0064
S11300200C943E000C943E000C943E000C943E0054
S11300300C943E000C943E000C943E000C943E0044
S11300400C943E000C943E000C943E000C943E0034
S11300500C943E000C943E000C943E000C943E0024
S11300600C943E000C943E0011241FBECFEFD8E048
S1130070DEBFCDBF0E9466000C94A1000C9400006A
S113008080E480937C0086E880937A000895ECE70E
S1130090F0E09081907F8F70892B8083EAE7F0E015
S11300A080818064808380917A0086FDFCCF80917A
S11300B0780090917900089584B1886084B983E8C8
S11300C08093B00084E08093B100089584B180618E
S11300D084B90E9440000E945C0080E00E944700B6
S11300E096958795969587958093B300882329F1F3
S11300F025B1206125B920E030E006C045E34A95EA
S1130100F1F700002F5F3F4FAC0155272417350747
S1130110ACF385B18F7E85B920E030E006C085E37D
S11301208A95F1F700002F5F3F4F8FEF90E0841B1B
S1130130950B281739079CF3D0CF85B18F7E85B9ED
S1090140CCCFF894FFCFC0
S9030000FC
